H010220131021                                                                                        A57450RESPN                                                                                                                                                                                                                                                                                                
D01373132333333334SE017982423794486373132333333334THOMAS D GREEN                SE0179854DHS    0200021209720131018                                         THIS IS A TEST                                                                                                                      510890832660        01                                                                                         T
D02373132333333334SE01798THIS IS A TEST                                                                                                                                                                                                                                                                                                                                                                        T
D03373132333333334SE01798THIS IS A TEST                                                                                                                                                                                                                                                                                                                                                                        T
T010220131021             000000005000000005                                                                                     A57450RESPN                                                                                                                                                                                                                                                                    
