HDR00000001      108907                          JETPAY                                  2423794627   US     012014101716553420140930165534                                                                                                                                                                                                                                                                                                                                                                                                                                                                                                                                                                                                                                                                                                                                                                                                                                                                                                                                                                                                                                                                                                                                      Y                                                                                                                                                                                                                                                                                                           
DTL00000002000000001000185     A1 SURVEILLANCE SYSTEMS LLC                                 A1 SURVEILLANCE SYSTEMS LLC                                 260585305      57323784 ARAPAHO ROAD                       ADDISON                                 TX    75001          US8664412288              MEHMET@A1SECURITYCAMERAS.COM                                                                                                                                                                                                                                  WWW.A1SECURITYCAMERAS.COM                                                                                                                                                                                                                                     USD0000000000000000000000000000000000000000000MEHMET              BOYUKOZER           260585305                     19820415 3784 ARAPAHO                           ADDSION                                 TX    75001          USN                                                                                                                                                                                                                                                                                                                                                                                                                                              YYYYYYYYYYYYYYYYYYYYYYYYYYYYYY                                        
DTL00000003000009999900101     JETPAY TERMINAL SALES                                       JETPAY TERMINAL SALES                                       752913428      53993361 BOYINGTON DR                       CARROLLTON                              TX    75006          US9725038900              EWEEKS@JETPAY.COM                                                                                                                                                                                                                                             WWW.JETPAY.COM                                                                                                                                                                                                                                                USD0000000000000000000000000000000000000000000ERIC                WEEKS               987654321                     197004013361 BOYINGTON DR                       CARROLLTON                              TX    75006          USN                                                                                                                                                                                                                                                                                                                                                                                                                                              YYYYYYYYYYYYYYYYYYYYYYYYYYYYYY                                        
TLR00000004000000004                                                                                                                                                                                                                                                                                                                                                                                                                                                                                                                                                                                                                                                                                                                                                                                                                                                                                                                                                                                                                                                                                                                                                                                                                                                                                                                                                                                                                                                                                                                                                                         
HDR00000001      108907                          JETPAY                                  2423794635   US     012014093016553420140930165534                                                                                                                                                                                                                                                                                                                                                                                                                                                                                                                                                                                                                                                                                                                                                                                                                                                                                                                                                                                                                                                                                                                                      Y                                                                                                                                                                                                                                                                                                           
DTL00000002000000001000729     SLATER LAWN  GARDEN INC                                     SLATER LAWN  GARDEN INC                                     264101409      07804117 MIAN ST                            ROWLETT                                 TX    75088          US9722708473              CISLATER@YAHOO.COM                                                                                                                                                                                                                                            WWW.SLATERLAWNANDGARDEN.COM                                                                                                                                                                                                                                   USD0000000000000000000000000000000000000000000CHARLES             SLATER              264101409                     195305184117 MAIN ST                            ROWLETT                                 TX    75088          USN                                                                                                                                                                                                                                                                                                                                                                                                                                              YYYYYYYYYYYYYYYYYYYYYYYYYYYYYY                                        
DTL00000003000000001000186     KRUEGER  CLARK INC                                          AXIA PAYMENTS-TEST ACCOUNT 1                                541951118      7399820 STATE STREET 3RD FLOOR              SANTA BARBRA                            CA    93101          US8778756114              RCLARKE@AXIAPAYMENTS.COM                                                                                                                                                                                                                                      WWW.AXIAPAYMENTS.COM                                                                                                                                                                                                                                          USD0000000000000000000000000000000000000000000RANDAL              CLARK               541951118                     19700616820 STATE STREET 3RD FLOOR              SANTA BARBARA                           CA    93101          USN                                                                                                                                                                                                                                                                                                                                                                                                                                              YYYYYYYYYYYYYYYYYYYYYYYYYYYYYY                                        
DTL00000004000000001000716     PREPAID2CASH HOLDINGS LLC                                   P2C                                                         273498652      89992030 FRANKLIN STREET 403                SAN FRANCISCO                           CA    94109          US2065503619              JOHN@PREPAID2CASH.COM                                                                                                                                                                                                                                         WWW.PREPAID2CASH.COM                                                                                                                                                                                                                                          USD0000000000000000000000000000000000000000000PETER               VOGT                464862235                     198309092030 FRANKLIN ST. # 403                 SAN FRANCISCO                           CA    94123          USN                                                                                                                                                                                                                                                                                                                                                                                                                                              YYYYYYYYYYYYYYYYYYYYYYYYYYYYYY                                        
DTL00000005000000001000324     ALLGOODS LLC                                                SPORTS PROMOTION NETWORK                                    464629794      7311912 113TH ST.                           ARLINGTON                               TX    76011          US8178074700              BELLIOT@ALLGOODSLLC.COM                                                                                                                                                                                                                                       WWW.SPNPRODUCTS.COM                                                                                                                                                                                                                                           USD0000000000000000000000000000000000000000000BRYAN               ELLIOT              464629794                     19650127912 113TH ST                            ARLINGTON                               TX    76011          USN                                                                                                                                                                                                                                                                                                                                                                                                                                              YYYYYYYYYYYYYYYYYYYYYYYYYYYYYY                                        
DTL00000006000000001000326     ALLGOODS LLC                                                PRIMETIME ADVERTISING                                       464629794      7311912 113TH ST.                           ARLINGTON                               TX    76011          US8178074700              BELLIOT@ALLGOODSLLC.COM                                                                                                                                                                                                                                       WWW.PTAPRODUCTS.COM                                                                                                                                                                                                                                           USD0000000000000000000000000000000000000000000BRYAN               ELLIOT              464629794                     19650127912 113TH ST                            ARLINGTON                               TX    76011          USN                                                                                                                                                                                                                                                                                                                                                                                                                                              YYYYYYYYYYYYYYYYYYYYYYYYYYYYYY                                        
DTL00000007000000001000187     KRUEGER  CLARK INC                                          AXIA PAYMENTS-TEST ACCOUNT 2                                541951118      7399820 STATE STREET 3RD FLOOR              SANTA BARBRA                            CA    93101          US8778756114              RCLARKE@AXIAPAYMENTS.COM                                                                                                                                                                                                                                      WWW.AXIAPAYMENTS.COM                                                                                                                                                                                                                                          USD0000000000000000000000000000000000000000000RANDAL              CLARK               541951118                     19700616820 STATE STREET 3RD FLOOR              SANTA BARBARA                           CA    93101          USN                                                                                                                                                                                                                                                                                                                                                                                                                                              YYYYYYYYYYYYYYYYYYYYYYYYYYYYYY                                        
DTL00000008000000001000325     ALLGOODS LLC                                                SPIRIT STOP                                                 464629794      7311912 113TH ST.                           ARLINGTON                               TX    76011          US8178074700              BELLIOT@ALLGOODSLLC.COM                                                                                                                                                                                                                                       WWW.SPIRITSTOP.COM                                                                                                                                                                                                                                            USD0000000000000000000000000000000000000000000BRYAN               ELLIOT              464629794                     19650127912 113TH ST                            ARLINGTON                               TX    76011          USN                                                                                                                                                                                                                                                                                                                                                                                                                                              YYYYYYYYYYYYYYYYYYYYYYYYYYYYYY                                        
TLR00000009000000009                                                                                                                                                                                                                                                                                                                                                                                                                                                                                                                                                                                                                                                                                                                                                                                                                                                                                                                                                                                                                                                                                                                                                                                                                                                                                                                                                                                                                                                                                                                                                                         
HDR00000001      108907                          JETPAY                                  2423794635   US     012014101716553420140930165534                                                                                                                                                                                                                                                                                                                                                                                                                                                                                                                                                                                                                                                                                                                                                                                                                                                                                                                                                                                                                                                                                                                                      Y                                                                                                                                                                                                                                                                                                           
DTL00000002                    SLATER LAWN  GARDEN INC                                     SLATER LAWN  GARDEN INC                                     264101409      07804117 MIAN ST                            ROWLETT                                 TX    75088          US9722708473              CISLATER@YAHOO.COM                                                                                                                                                                                                                                            WWW.SLATERLAWNANDGARDEN.COM                                                                                                                                                                                                                                   USD0000000000000000000000000000000000000000000CHARLES             SLATER              264101409                     195305184117 MAIN ST                            ROWLETT                                 TX    75088          USN                                                                                                                                                                                                                                                                                                                                                                                                                                              NNNNNNNNNNNNNNNNNNNNNNNNNNNNNN                                        
DTL00000003000000001000186     KRUEGER  CLARK INC                                          AXIA PAYMENTS-TEST ACCOUNT 1                                541951118      7399820 STATE STREET 3RD FLOOR              SANTA BARBRA                            CA    93101          US8778756114              RCLARKE@AXIAPAYMENTS.COM                                                                                                                                                                                                                                      WWW.AXIAPAYMENTS.COM                                                                                                                                                                                                                                          USD0000000000000000000000000000000000000000000RANDAL              CLARK               541951118                     19700616820 STATE STREET 3RD FLOOR              SANTA BARBARA                           CA    93101          USN                                                                                                                                                                                                                                                                                                                                                                                                                                              YYYYYYYYYYYYYYYYYYYYYYYYYYYYYY                                        
DTL00000004000000001000716     PREPAID2CASH HOLDINGS LLC                                   P2C                                                         273498652      89992030 FRANKLIN STREET 403                SAN FRANCISCO                           CA    94109          US2065503619              JOHN@PREPAID2CASH.COM                                                                                                                                                                                                                                         WWW.PREPAID2CASH.COM                                                                                                                                                                                                                                          USD0000000000000000000000000000000000000000000PETER               VOGT                464862235                     198309092030 FRANKLIN ST. # 403                 SAN FRANCISCO                           CA    94123          USN                                                                                                                                                                                                                                                                                                                                                                                                                                              YYYYYYYYYYYYYYYYYYYYYYYYYYYYYY                                        
DTL00000005000000001000324     ALLGOODS LLC                                                SPORTS PROMOTION NETWORK                                    464629794      7311912 113TH ST.                           ARLINGTON                               TX    76011          US8178074700              BELLIOT@ALLGOODSLLC.COM                                                                                                                                                                                                                                       WWW.SPNPRODUCTS.COM                                                                                                                                                                                                                                           USD0000000000000000000000000000000000000000000BRYAN               ELLIOT              464629794                     19650127912 113TH ST                            ARLINGTON                               TX    76011          USN                                                                                                                                                                                                                                                                                                                                                                                                                                              YYYYYYYYYYYYYYYYYYYYYYYYYYYYYY                                        
DTL00000006000000001000326     ALLGOODS LLC                                                PRIMETIME ADVERTISING                                       464629794      7311912 113TH ST.                           ARLINGTON                               TX    76011          US8178074700              BELLIOT@ALLGOODSLLC.COM                                                                                                                                                                                                                                       WWW.PTAPRODUCTS.COM                                                                                                                                                                                                                                           USD0000000000000000000000000000000000000000000BRYAN               ELLIOT              464629794                     19650127912 113TH ST                            ARLINGTON                               TX    76011          USN                                                                                                                                                                                                                                                                                                                                                                                                                                              YYYYYYYYYYYYYYYYYYYYYYYYYYYYYY                                        
DTL00000007000000001000187     KRUEGER  CLARK INC                                          AXIA PAYMENTS-TEST ACCOUNT 2                                541951118      7399820 STATE STREET 3RD FLOOR              SANTA BARBRA                            CA    93101          US8778756114              RCLARKE@AXIAPAYMENTS.COM                                                                                                                                                                                                                                      WWW.AXIAPAYMENTS.COM                                                                                                                                                                                                                                          USD0000000000000000000000000000000000000000000RANDAL              CLARK               541951118                     19700616820 STATE STREET 3RD FLOOR              SANTA BARBARA                           CA    93101          USN                                                                                                                                                                                                                                                                                                                                                                                                                                              YYYYYYYYYYYYYYYYYYYYYYYYYYYYYY                                        
DTL00000008000000001000325     ALLGOODS LLC                                                SPIRIT STOP                                                 464629794      7311912 113TH ST.                           ARLINGTON                               TX    76011          US8178074700              BELLIOT@ALLGOODSLLC.COM                                                                                                                                                                                                                                       WWW.SPIRITSTOP.COM                                                                                                                                                                                                                                            USD0000000000000000000000000000000000000000000BRYAN               ELLIOT              464629794                     19650127912 113TH ST                            ARLINGTON                               TX    76011          USN                                                                                                                                                                                                                                                                                                                                                                                                                                              YYYYYYYYYYYYYYYYYYYYYYYYYYYYYY                                        
TLR00000009000000009                                                                                                                                                                                                                                                                                                                                                                                                                                                                                                                                                                                                                                                                                                                                                                                                                                                                                                                                                                                                                                                                                                                                                                                                                                                                                                                                                                                                                                                                                                                                                                         
