HDR00000001      108907                          JETPAY                                  2423794627   US     012014100616553420140930165534                                                                                                                                                                                                                                                                                                                                                                                                                                                                                                                                                                                                                                                                                                                                                                                                                                                                                                                                                                                                                                                                                                                                      Y                                                                                                                                                                                                                                                                                                           
DTL00000002000000001000185     A1 SURVEILLANCE SYSTEMS LLC                                 A1 SURVEILLANCE SYSTEMS LLC                                 260585305      57323784 ARAPAHO ROAD                       ADDISON                                 TX    75001          US8664412288              MEHMET@A1SECURITYCAMERAS.COM                                                                                                                                                                                                                                  WWW.A1SECURITYCAMERAS.COM                                                                                                                                                                                                                                     USD0000000000000000000000000000000000000000000MEHMET              BOYUKOZER                                         19820415 3784 ARAPAHO                           ADDSION                                 TX    75001          USN                                                                                                                                                                                                                                                                                                                                                                                                                                              YYYYYYYYYYYYYYYYYYYYYYYYYYYYYY                                        
DTL00000003000009999900101     JETPAY TERMINAL SALES                                       JETPAY TERMINAL SALES                                                      53993361 BOYINGTON DR                       CARROLLTON                              TX    75006          US9725038900              EWEEKS@JETPAY.COM                                                                                                                                                                                                                                             WWW.JETPAY.COM                                                                                                                                                                                                                                                USD0000000000000000000000000000000000000000000ERIC                WEEKS               987654321                     197004013361 BOYINGTON DR                       CARROLLTON                              TX    75006          USN                                                                                                                                                                                                                                                                                                                                                                                                                                              YYYYYNYYYYYYYYYYYYYYYYYYYYYYYY                                        
TLR00000004000000004                                                                                                                                                                                                                                                                                                                                                                                                                                                                                                                                                                                                                                                                                                                                                                                                                                                                                                                                                                                                                                                                                                                                                                                                                                                                                                                                                                                                                                                                                                                                                                         
