H010220131024                                                                                        A57450RESPN                                                                                         JETPAYEAPTST.RESPN.20131024.130951 20131024 13:09:51                                                                                                                                                   
D01372003876543210GS017842423794445372003876543210MARK E ROBINSON               GS0178454DHS    04000000000        N                                        Test Condition 2.6                                                                                                                  510890832660        01                                                                                         T
D02372003876543210GS01784                                                                                                                                                                                                                                                                                                                                                                                      T
D03372003876543210GS01784                                                                                                                                                                                                                                                                                                                                                                                      T
D01371570799762003SE017822423794437371570799762003JOHN  SMITH                   SE0178254DHS    16000000000        N                                        Test Condition 2.4                                                                                                                  510890832660        01                                                                                         T
D02371570799762003SE01782                                                                                                                                                                                                                                                                                                                                                                                      T
D03371570799762003SE01782                                                                                                                                                                                                                                                                                                                                                                                      T
D01370266076543213SE017852423794445370266076543213MARK E ROBINSON               SE0178554DHS    46000000000        N                                        Test Condition 2.7                                                                                                                  510890832660        01                                                                                         T
D02370266076543213SE01785                                                                                                                                                                                                                                                                                                                                                                                      T
D03370266076543213SE01785                                                                                                                                                                                                                                                                                                                                                                                      T
D01374800014017892SE017862423794445374800014017892MARK E ROBINSON               SE0178654DHS    41000000000        N                                        Test Condition 2.8                                                                                                                  510890832660        01                                                                                         T
D02374800014017892SE01786                                                                                                                                                                                                                                                                                                                                                                                      T
D03374800014017892SE01786                                                                                                                                                                                                                                                                                                                                                                                      T
D01378590222100004SE017892423794452378590222100004GREGORY  ROBINSON             SE0178954DHS    13000000000        N                                        Test Condition 2.11                                                                                                                 510890832660        01                                                                                         T
D02378590222100004SE01789                                                                                                                                                                                                                                                                                                                                                                                      T
D03378590222100004SE01789                                                                                                                                                                                                                                                                                                                                                                                      T
D01370264123456786SE017902423794452370264123456786MARK E ROBINSON               SE0179054DHS    71000000000        N                                        Test Condition 2.12                                                                                                                 510890832660        01                                                                                         T
D02370264123456786SE01790                                                                                                                                                                                                                                                                                                                                                                                      T
D03370264123456786SE01790                                                                                                                                                                                                                                                                                                                                                                                      T
D01378590222200002SE017912423794452378590222200002MEREDITH  JACKSON             SE0179154DHS    02000000000        N                                        Test Condition 2.13                                                                                                                 510890832660        01                                                                                         T
D02378590222200002SE01791                                                                                                                                                                                                                                                                                                                                                                                      T
D03378590222200002SE01791                                                                                                                                                                                                                                                                                                                                                                                      T
D01371532082912000SE017922423794452371532082912000MARY SUSAN WHITE              SE0179254DHS    08000000000        N                                        Test Condition 2.14                                                                                                                 510890832660        01                                                                                         T
D02371532082912000SE01792                                                                                                                                                                                                                                                                                                                                                                                      T
D03371532082912000SE01792                                                                                                                                                                                                                                                                                                                                                                                      T
D01372003876543210SE017932423794460372003876543210MARK E ROBINSON               SE0179354DHS    08000000000        N                                        Test Condition 2.15                                                                                                                 510890832660        01                                                                                         T
D02372003876543210SE01793                                                                                                                                                                                                                                                                                                                                                                                      T
D03372003876543210SE01793                                                                                                                                                                                                                                                                                                                                                                                      T
D01370266076543213SE017942423794460370266076543213MARK E ROBINSON               SE0179454DHS    12000000000        N                                        Test Condition 2.16                                                                                                                 510890832660        01                                                                                         T
D02370266076543213SE01794                                                                                                                                                                                                                                                                                                                                                                                      T
D03370266076543213SE01794                                                                                                                                                                                                                                                                                                                                                                                      T
D01371570799762003SE017972423794486371570799762003JOHN  SMITH                   SE0179754DHS    02000000000        N                                        Test Condition 2.19                                                                                                                 510890832660        01                                                                                         T
D02371570799762003SE01797                                                                                                                                                                                                                                                                                                                                                                                      T
D03371570799762003SE01797                                                                                                                                                                                                                                                                                                                                                                                      T
D01371260002102227SE017952423794460371260002102227M T HARRISON                  SE0179554DHS    04000000000        N                                        Test Condition 2.17                                                                                                                 510890832660        01                                                                                         T
D02371260002102227SE01795                                                                                                                                                                                                                                                                                                                                                                                      T
D03371260002102227SE01795                                                                                                                                                                                                                                                                                                                                                                                      T
T010220131024             000000038000000038                                                                                     A57450RESPN                                                                                                                                                                                                                                                                    
