H010220131030                                                                                        A57450RESPN                                                                                         JETPAYEAPTST.RESPN.20131030.164256 20131030 16:42:56                                                                                                                                                   
D01371016057771005SE018052423794627371016057771005DAVE  WHITE                   SE0180503DHS    02000000000        N                                        Response to Inquiry case for regression                                                                                             510890732660        01                                                                                         T
D02371016057771005SE01805                                                                                                                                                                                                                                                                                                                                                                                      T
D03371016057771005SE01805                                                                                                                                                                                                                                                                                                                                                                                      T
T010220131030             000000005000000005                                                                                     A57450RESPN                                                                                                                                                                                                                                                                    
