H    2423794601                                                                                                                                                                                                                                                                                                                                               
D000000001000185                       03142014A1 SURVEILLANCE SYSTEMS L                                                  TX         5732                  1CDSDirect                   JETPAY                   0000000000000000000000000                                                                                                                    
D000000001000055     2423794643        01092014EVERGREEN HEATING AND AIR                                                  TX                               1CDSDirect                   JETPAY                   0000000000000000000000000                                                                                                                    
D000000001000130     2423794684        02142014SOUTH DAKOTA DEPT OF GAME                                                  SD         9399                  1CDSDirect                   JETPAY                   0000000000000000000000000                                                                                                                    
D000000001000324     2423794635        05022014SPORTS PROMOTION NETWORK                                                   TX         7311                  1CDSDirect                   JETPAY                   0000000000000000000000000                                                                                                                    
D000000001000325     2423794635        05022014SPIRIT STOP                                                                TX         7311                  1CDSDirect                   JETPAY                   0000000000000000000000000                                                                                                                    
D000000001000326     2423794635        05022014PRIMETIME ADVERTISING                                                      TX         7311                  1CDSDirect                   JETPAY                   0000000000000000000000000                                                                                                                    
D000000001000716     2423794635        09042014P2C                                                                        CA         8999                  1CDSDirect                   JETPAY                   0000000000000000000000000                                                                                                                    
D000000001000721     2423794643        09122014COLLECTOR SOLUTIONS                                                        FL         7372                  1CDSDirect                   JETPAY                   0000000000000000000000000                                                                                                                    
D000000001000755     2423794643        09232014NEXGEN FITNESS                                                             TX         7997                  1CDSDirect                   JETPAY                   0000000000000000000000000                                                                                                                    
D000000001000785     2423794643        09292014CIRIGHT SYSTEMS                                                            PA         7372                  1CDSDirect                   JETPAY                   0000000000000000000000000                                                                                                                    
D000009999900101     2423794627        10312013JETPAY TERMINAL SALES                                                      TX         5399                  1CDSDirect                   JETPAY                   0000000000000000000000000                                                                                                                    
D000000001000289     2423794643        04232014JUDITH P KENNEY  ASSOCIAT                                                  TX         8111                  1CDSDirect                   JETPAY                   0000000000000000000000000                                                                                                                    
D000000001000249     2424172369        04072014HOLIDAY INN EXPRESS                                                        TX         7011                  1CDSDirect                   JETPAY                   0000000000000000000000000                                                                                                                    
D000000001000537     2423794643        07022014NISSCO LLC                                                                 VA         2842                  1CDSDirect                   JETPAY                   0000000000000000000000000                                                                                                                    
D000000001000729     2423794635        09102014SLATER LAWN  GARDEN INC                                                    TX         0780                  1CDSDirect                   JETPAY                   0000000000000000000000000                                                                                                                    
D000000001000762     2423794668        09232014CAPE COD HOSPITAL                                                          MA         8099                  1CDSDirect                   JETPAY                   0000000000000000000000000                                                                                                                    
T00000000110172014000000018                                                                                                                                                                                                                                                                                                                                   